{
  "contractName": "CollegeRank",
  "abi": [
    {
      "constant": true,
      "inputs": [],
      "name": "collegesCount",
      "outputs": [
        {
          "name": "",
          "type": "uint256"
        }
      ],
      "payable": false,
      "stateMutability": "view",
      "type": "function",
      "signature": "0x55389118"
    },
    {
      "constant": true,
      "inputs": [
        {
          "name": "",
          "type": "uint256"
        }
      ],
      "name": "colleges",
      "outputs": [
        {
          "name": "id",
          "type": "uint256"
        },
        {
          "name": "name",
          "type": "string"
        },
        {
          "name": "voteCount",
          "type": "uint256"
        }
      ],
      "payable": false,
      "stateMutability": "view",
      "type": "function",
      "signature": "0x91bbf4f3"
    },
    {
      "constant": true,
      "inputs": [
        {
          "name": "",
          "type": "address"
        }
      ],
      "name": "voters",
      "outputs": [
        {
          "name": "",
          "type": "bool"
        }
      ],
      "payable": false,
      "stateMutability": "view",
      "type": "function",
      "signature": "0xa3ec138d"
    },
    {
      "inputs": [],
      "payable": false,
      "stateMutability": "nonpayable",
      "type": "constructor",
      "signature": "constructor"
    },
    {
      "anonymous": false,
      "inputs": [
        {
          "indexed": true,
          "name": "_collegeId",
          "type": "uint256"
        }
      ],
      "name": "voted",
      "type": "event",
      "signature": "0x8fbb38ff86a5b319c33b22609be0afce04335d5db18c6bd100767e251d4028cc"
    },
    {
      "constant": false,
      "inputs": [
        {
          "name": "_collegeId",
          "type": "uint256"
        }
      ],
      "name": "vote",
      "outputs": [],
      "payable": false,
      "stateMutability": "nonpayable",
      "type": "function",
      "signature": "0x0121b93f"
    }
  ],
  "bytecode": "0x608060405234801561001057600080fd5b50610085606060405190810160405280602181526020017f436f6e636f7264696120556e69766572736974793a204a6f686e204d6f6c736f81526020017f6e000000000000000000000000000000000000000000000000000000000000008152506101be640100000000026401000000009004565b6100d26040805190810160405280601c81526020017f4d6347696c6c20556e69766572736974793a20446573617574656c73000000008152506101be640100000000026401000000009004565b61011f6040805190810160405280601981526020017f517565656e277320556e69766572736974793a20536d697468000000000000008152506101be640100000000026401000000009004565b61016c6040805190810160405280601881526020017f5765737465726e20556e69766572736974793a204976657900000000000000008152506101be640100000000026401000000009004565b6101b96040805190810160405280601981526020017f596f726b20556e69766572736974793a20536368756c696368000000000000008152506101be640100000000026401000000009004565b6102e0565b6002600081548092919060010191905055506060604051908101604052806002548152602001828152602001600081525060016000600254815260200190815260200160002060008201518160000155602082015181600101908051906020019061022a92919061023b565b506040820151816002015590505050565b828054600181600116156101000203166002900490600052602060002090601f016020900481019282601f1061027c57805160ff19168380011785556102aa565b828001600101855582156102aa579182015b828111156102a957825182559160200191906001019061028e565b5b5090506102b791906102bb565b5090565b6102dd91905b808211156102d95760008160009055506001016102c1565b5090565b90565b610500806102ef6000396000f3fe608060405260043610610062576000357c0100000000000000000000000000000000000000000000000000000000900463ffffffff1680630121b93f1461006757806355389118146100a257806391bbf4f3146100cd578063a3ec138d1461018f575b600080fd5b34801561007357600080fd5b506100a06004803603602081101561008a57600080fd5b81019080803590602001909291905050506101f8565b005b3480156100ae57600080fd5b506100b76103ec565b6040518082815260200191505060405180910390f35b3480156100d957600080fd5b50610106600480360360208110156100f057600080fd5b81019080803590602001909291905050506103f2565b6040518084815260200180602001838152602001828103825284818151815260200191508051906020019080838360005b83811015610152578082015181840152602081019050610137565b50505050905090810190601f16801561017f5780820380516001836020036101000a031916815260200191505b5094505050505060405180910390f35b34801561019b57600080fd5b506101de600480360360208110156101b257600080fd5b81019080803573ffffffffffffffffffffffffffffffffffffffff1690602001909291905050506104b4565b604051808215151515815260200191505060405180910390f35b6000803373ffffffffffffffffffffffffffffffffffffffff1673ffffffffffffffffffffffffffffffffffffffff16815260200190815260200160002060009054906101000a900460ff161515156102b9576040517f08c379a000000000000000000000000000000000000000000000000000000000815260040180806020018281038252601f8152602001807f4f6e6c79206f6e6520766f746520616c6c6f7765642070657220766f7465720081525060200191505060405180910390fd5b6000811180156102cb57506002548111155b151561033f576040517f08c379a000000000000000000000000000000000000000000000000000000000815260040180806020018281038252600f8152602001807f496e76616c696420436f6c6c656765000000000000000000000000000000000081525060200191505060405180910390fd5b60016000803373ffffffffffffffffffffffffffffffffffffffff1673ffffffffffffffffffffffffffffffffffffffff16815260200190815260200160002060006101000a81548160ff0219169083151502179055506001600082815260200190815260200160002060020160008154809291906001019190505550807f8fbb38ff86a5b319c33b22609be0afce04335d5db18c6bd100767e251d4028cc60405160405180910390a250565b60025481565b6001602052806000526040600020600091509050806000015490806001018054600181600116156101000203166002900480601f0160208091040260200160405190810160405280929190818152602001828054600181600116156101000203166002900480156104a45780601f10610479576101008083540402835291602001916104a4565b820191906000526020600020905b81548152906001019060200180831161048757829003601f168201915b5050505050908060020154905083565b60006020528060005260406000206000915054906101000a900460ff168156fea165627a7a7230582055f31edfe9e5f84f5a898844e074e18fa1d3d464ec6d89337ea153808a96a5930029",
  "source": "pragma solidity ^0.5.0;\r\n\r\ncontract CollegeRank{\r\n    //Model a college\r\n    struct College {\r\n        uint id;\r\n        string name;\r\n        uint voteCount;\r\n        }\r\n    //Store accounts that have voted\r\n    mapping(address => bool) public voters;\r\n    // Store college\r\n    // Fetch college\r\n    mapping(uint => College) public colleges;\r\n    // Store Colleges Count\r\n    uint public collegesCount;\r\n    //event for capturing vote\r\n    event voted (\r\n        uint indexed _collegeId\r\n    );\r\n\r\n     //Constructor\r\nconstructor () public {\r\n    addCollege(\"Concordia University: John Molson\");\r\n    addCollege(\"McGill University: Desautels\");\r\n    addCollege(\"Queen's University: Smith\");\r\n    addCollege(\"Western University: Ivey\");\r\n    addCollege(\"York University: Schulich\");\r\n}\r\nfunction addCollege (string memory _name) private{\r\n    collegesCount ++;\r\n    colleges[collegesCount] = College(collegesCount, _name, 0);\r\n}\r\nfunction vote(uint _collegeId) public {\r\n    // require that they haven't voted before\r\n    require(!voters[msg.sender], \"Only one vote allowed per voter\"); \r\n    // require a valid college\r\n    require(_collegeId >0 && _collegeId <= collegesCount , \"Invalid College\");\r\n\r\n    // record that voter has voted\r\n    voters[msg.sender] = true;\r\n    // update college vote count\r\n    colleges[_collegeId].voteCount++;\r\n\r\n    //trigger voted event\r\n    emit voted(_collegeId);\r\n}\r\n}",
  "sourcePath": "C:/Users/sharm/OneDrive/Desktop/DAPP2-CollegeRank/contracts/CollegeRank.sol",
  "compiler": {
    "name": "solc",
    "version": "0.5.0+commit.1d4f565a.Emscripten.clang"
  },
  "schemaVersion": "3.0.2",
  "updatedAt": "2020-08-15T17:32:15.844Z",
  "devdoc": {
    "methods": {}
  },
  "userdoc": {
    "methods": {}
  }
}